{
  "contractName": "News",
  "abi": [
    {
      "constant": false,
      "inputs": [
        {
          "internalType": "uint256",
          "name": "hashval",
          "type": "uint256"
        }
      ],
      "name": "addImage",
      "outputs": [],
      "payable": false,
      "stateMutability": "nonpayable",
      "type": "function"
    },
    {
      "constant": false,
      "inputs": [
        {
          "internalType": "uint256",
          "name": "hashval",
          "type": "uint256"
        }
      ],
      "name": "addArticle",
      "outputs": [],
      "payable": false,
      "stateMutability": "nonpayable",
      "type": "function"
    },
    {
      "constant": true,
      "inputs": [
        {
          "internalType": "address",
          "name": "publisher",
          "type": "address"
        },
        {
          "internalType": "uint256",
          "name": "hashval",
          "type": "uint256"
        }
      ],
      "name": "checkImage",
      "outputs": [
        {
          "internalType": "bool",
          "name": "",
          "type": "bool"
        }
      ],
      "payable": false,
      "stateMutability": "view",
      "type": "function"
    },
    {
      "constant": true,
      "inputs": [
        {
          "internalType": "address",
          "name": "publisher",
          "type": "address"
        },
        {
          "internalType": "uint256",
          "name": "hashval",
          "type": "uint256"
        }
      ],
      "name": "checkArticle",
      "outputs": [
        {
          "internalType": "bool",
          "name": "",
          "type": "bool"
        }
      ],
      "payable": false,
      "stateMutability": "view",
      "type": "function"
    },
    {
      "constant": false,
      "inputs": [
        {
          "internalType": "uint256",
          "name": "hashval",
          "type": "uint256"
        }
      ],
      "name": "removeImage",
      "outputs": [],
      "payable": false,
      "stateMutability": "nonpayable",
      "type": "function"
    },
    {
      "constant": false,
      "inputs": [
        {
          "internalType": "uint256",
          "name": "hashval",
          "type": "uint256"
        }
      ],
      "name": "removeArticle",
      "outputs": [],
      "payable": false,
      "stateMutability": "nonpayable",
      "type": "function"
    }
  ],
  "bytecode": "0x608060405234801561001057600080fd5b5061049c806100206000396000f3fe608060405234801561001057600080fd5b50600436106100625760003560e01c80637e28ee18146100675780638b25261f14610095578063b541524b146100c3578063b6fc2ace14610129578063cbdd736114610157578063d453609a146101bd575b600080fd5b6100936004803603602081101561007d57600080fd5b81019080803590602001909291905050506101eb565b005b6100c1600480360360208110156100ab57600080fd5b8101908080359060200190929190505050610257565b005b61010f600480360360408110156100d957600080fd5b81019080803573ffffffffffffffffffffffffffffffffffffffff169060200190929190803590602001909291905050506102c2565b604051808215151515815260200191505060405180910390f35b6101556004803603602081101561013f57600080fd5b810190808035906020019092919050505061032a565b005b6101a36004803603604081101561016d57600080fd5b81019080803573ffffffffffffffffffffffffffffffffffffffff16906020019092919080359060200190929190505050610395565b604051808215151515815260200191505060405180910390f35b6101e9600480360360208110156101d357600080fd5b81019080803590602001909291905050506103fc565b005b6000600160003373ffffffffffffffffffffffffffffffffffffffff1673ffffffffffffffffffffffffffffffffffffffff168152602001908152602001600020600083815260200190815260200160002060006101000a81548160ff02191690831515021790555050565b60008060003373ffffffffffffffffffffffffffffffffffffffff1673ffffffffffffffffffffffffffffffffffffffff168152602001908152602001600020600083815260200190815260200160002060006101000a81548160ff02191690831515021790555050565b6000600160008473ffffffffffffffffffffffffffffffffffffffff1673ffffffffffffffffffffffffffffffffffffffff168152602001908152602001600020600083815260200190815260200160002060009054906101000a900460ff16905092915050565b60016000803373ffffffffffffffffffffffffffffffffffffffff1673ffffffffffffffffffffffffffffffffffffffff168152602001908152602001600020600083815260200190815260200160002060006101000a81548160ff02191690831515021790555050565b60008060008473ffffffffffffffffffffffffffffffffffffffff1673ffffffffffffffffffffffffffffffffffffffff168152602001908152602001600020600083815260200190815260200160002060009054906101000a900460ff16905092915050565b60018060003373ffffffffffffffffffffffffffffffffffffffff1673ffffffffffffffffffffffffffffffffffffffff168152602001908152602001600020600083815260200190815260200160002060006101000a81548160ff0219169083151502179055505056fea265627a7a72315820653b39bd4fd65ec5a6e1cb59e0aba7c0d93feddc7533cb82effb6e98959f6ba264736f6c63430005100032",
  "source": "pragma solidity >=0.4.22 <0.9.0;\n\ncontract News {\n\n    // Store image hashes\n    mapping(address => mapping(uint256 => bool)) private imageHashes;\n    // Store news headline hashes\n    mapping(address => mapping(uint256 => bool)) private articleHashes;\n\n    function addImage(uint256 hashval) public {\n        imageHashes[msg.sender][hashval] = true;\n    }\n\n    function addArticle(uint256 hashval) public {\n        articleHashes[msg.sender][hashval] = true;\n    }\n\n    function checkImage (address publisher, uint256 hashval) public view returns (bool) {\n        return imageHashes[publisher][hashval];\n    }\n\n    function checkArticle (address publisher, uint256 hashval) public view returns (bool) {\n        return articleHashes[publisher][hashval];\n    }\n\n    function removeImage(uint256 hashval) public {\n        imageHashes[msg.sender][hashval] = false;\n    }\n\n    function removeArticle(uint256 hashval) public {\n        articleHashes[msg.sender][hashval] = false;\n    }\n\n}",
  "sourcePath": "/Users/scotthao/Desktop/cruzhacks2022/contracts/News.sol",
  "compiler": {
    "name": "solc",
    "version": "0.5.16+commit.9c3226ce.Emscripten.clang"
  },
  "schemaVersion": "3.4.4",
  "updatedAt": "2022-01-15T13:31:45.858Z",
  "networkType": "ethereum",
  "devdoc": {
    "methods": {}
  },
  "userdoc": {
    "methods": {}
  }
}